{
  "_format": "hh3-artifact-1",
  "contractName": "Counter",
  "sourceName": "contracts/Counter.sol",
  "abi": [
    {
      "anonymous": false,
      "inputs": [
        {
          "indexed": false,
          "internalType": "uint256",
          "name": "by",
          "type": "uint256"
        }
      ],
      "name": "Increment",
      "type": "event"
    },
    {
      "inputs": [],
      "name": "inc",
      "outputs": [],
      "stateMutability": "nonpayable",
      "type": "function"
    },
    {
      "inputs": [
        {
          "internalType": "uint256",
          "name": "by",
          "type": "uint256"
        }
      ],
      "name": "incBy",
      "outputs": [],
      "stateMutability": "nonpayable",
      "type": "function"
    },
    {
      "inputs": [
        {
          "internalType": "uint256",
          "name": "by",
          "type": "uint256"
        }
      ],
      "name": "incByy",
      "outputs": [],
      "stateMutability": "nonpayable",
      "type": "function"
    },
    {
      "inputs": [],
      "name": "x",
      "outputs": [
        {
          "internalType": "uint256",
          "name": "",
          "type": "uint256"
        }
      ],
      "stateMutability": "view",
      "type": "function"
    },
    {
      "inputs": [],
      "name": "z",
      "outputs": [
        {
          "internalType": "uint256",
          "name": "",
          "type": "uint256"
        }
      ],
      "stateMutability": "view",
      "type": "function"
    }
  ],
  "bytecode": "0x6080604052348015600e575f5ffd5b5061026d8061001c5f395ff3fe608060405234801561000f575f5ffd5b5060043610610055575f3560e01c80630c55699c14610059578063371303c01461007357806350c75be41461007d57806370119d0614610090578063c5d7802e146100a3575b5f5ffd5b6100615f5481565b60405190815260200160405180910390f35b61007b6100ac565b005b61007b61008b366004610198565b6100f5565b61007b61009e366004610198565b610169565b61006160025481565b5f805490806100ba836101c3565b9091555050604051600181527f51af157c2eee40f68107a47a49c32fbbeb0a3c9e5cd37aa56e88e6be92368a819060200160405180910390a1565b5f811161011d5760405162461bcd60e51b8152600401610114906101db565b60405180910390fd5b8060015f82825461012e919061021e565b90915550506040518181527f51af157c2eee40f68107a47a49c32fbbeb0a3c9e5cd37aa56e88e6be92368a819060200160405180910390a150565b5f81116101885760405162461bcd60e51b8152600401610114906101db565b805f5f82825461012e919061021e565b5f602082840312156101a8575f5ffd5b5035919050565b634e487b7160e01b5f52601160045260245ffd5b5f600182016101d4576101d46101af565b5060010190565b60208082526023908201527f696e6342793a20696e6372656d656e742073686f756c6420626520706f73697460408201526269766560e81b606082015260800190565b80820180821115610231576102316101af565b9291505056fea26469706673582212209d61f173134a1a184935aabd7f08a7d2a9d28e9512441cb15b3daa0d6ab9f7ac64736f6c634300081c0033",
  "linkReferences": {},
  "deployedLinkReferences": {},
  "immutableReferences": {},
  "inputSourceName": "project/contracts/Counter.sol",
  "buildInfoId": "solc-0_8_28-a2d8a02b07197bf9c9c0ce264715c2da2609690d"
}