{
  "_format": "hh3-artifact-1",
  "contractName": "SealEncrypt",
  "sourceName": "contracts/SealEncrypt.sol",
  "abi": [
    {
      "inputs": [],
      "stateMutability": "nonpayable",
      "type": "constructor"
    },
    {
      "anonymous": false,
      "inputs": [
        {
          "indexed": true,
          "internalType": "address",
          "name": "admin",
          "type": "address"
        }
      ],
      "name": "AdminAdded",
      "type": "event"
    },
    {
      "anonymous": false,
      "inputs": [
        {
          "indexed": true,
          "internalType": "address",
          "name": "admin",
          "type": "address"
        }
      ],
      "name": "AdminRemoved",
      "type": "event"
    },
    {
      "anonymous": false,
      "inputs": [
        {
          "indexed": true,
          "internalType": "address",
          "name": "user",
          "type": "address"
        },
        {
          "indexed": false,
          "internalType": "string",
          "name": "cid",
          "type": "string"
        },
        {
          "indexed": true,
          "internalType": "address",
          "name": "addedBy",
          "type": "address"
        }
      ],
      "name": "CIDAdded",
      "type": "event"
    },
    {
      "anonymous": false,
      "inputs": [
        {
          "indexed": true,
          "internalType": "address",
          "name": "user",
          "type": "address"
        },
        {
          "indexed": false,
          "internalType": "string",
          "name": "username",
          "type": "string"
        }
      ],
      "name": "UsernameSet",
      "type": "event"
    },
    {
      "inputs": [
        {
          "internalType": "address",
          "name": "_admin",
          "type": "address"
        }
      ],
      "name": "addAdmin",
      "outputs": [],
      "stateMutability": "nonpayable",
      "type": "function"
    },
    {
      "inputs": [
        {
          "internalType": "address",
          "name": "user",
          "type": "address"
        },
        {
          "internalType": "string",
          "name": "cid",
          "type": "string"
        },
        {
          "internalType": "uint256",
          "name": "unlockTime",
          "type": "uint256"
        },
        {
          "internalType": "uint256",
          "name": "price",
          "type": "uint256"
        },
        {
          "internalType": "address[]",
          "name": "recipients",
          "type": "address[]"
        },
        {
          "internalType": "bool",
          "name": "encrypted",
          "type": "bool"
        },
        {
          "internalType": "string",
          "name": "filename",
          "type": "string"
        }
      ],
      "name": "addDocument",
      "outputs": [],
      "stateMutability": "nonpayable",
      "type": "function"
    },
    {
      "inputs": [
        {
          "internalType": "address",
          "name": "",
          "type": "address"
        }
      ],
      "name": "documentCount",
      "outputs": [
        {
          "internalType": "uint256",
          "name": "",
          "type": "uint256"
        }
      ],
      "stateMutability": "view",
      "type": "function"
    },
    {
      "inputs": [
        {
          "internalType": "address",
          "name": "",
          "type": "address"
        },
        {
          "internalType": "uint256",
          "name": "",
          "type": "uint256"
        }
      ],
      "name": "documents",
      "outputs": [
        {
          "internalType": "string",
          "name": "docName",
          "type": "string"
        },
        {
          "internalType": "string",
          "name": "cid",
          "type": "string"
        },
        {
          "internalType": "address",
          "name": "owner",
          "type": "address"
        },
        {
          "internalType": "uint256",
          "name": "unlockTime",
          "type": "uint256"
        },
        {
          "internalType": "uint256",
          "name": "price",
          "type": "uint256"
        },
        {
          "internalType": "bool",
          "name": "encrypted",
          "type": "bool"
        }
      ],
      "stateMutability": "view",
      "type": "function"
    },
    {
      "inputs": [
        {
          "internalType": "address",
          "name": "user",
          "type": "address"
        },
        {
          "internalType": "uint256",
          "name": "index",
          "type": "uint256"
        }
      ],
      "name": "getDocument",
      "outputs": [
        {
          "components": [
            {
              "internalType": "string",
              "name": "docName",
              "type": "string"
            },
            {
              "internalType": "string",
              "name": "cid",
              "type": "string"
            },
            {
              "internalType": "address",
              "name": "owner",
              "type": "address"
            },
            {
              "internalType": "uint256",
              "name": "unlockTime",
              "type": "uint256"
            },
            {
              "internalType": "uint256",
              "name": "price",
              "type": "uint256"
            },
            {
              "internalType": "address[]",
              "name": "sharedRecipients",
              "type": "address[]"
            },
            {
              "internalType": "bool",
              "name": "encrypted",
              "type": "bool"
            }
          ],
          "internalType": "struct SealEncrypt.Document",
          "name": "",
          "type": "tuple"
        }
      ],
      "stateMutability": "view",
      "type": "function"
    },
    {
      "inputs": [
        {
          "internalType": "address",
          "name": "user",
          "type": "address"
        }
      ],
      "name": "getDocumentCount",
      "outputs": [
        {
          "internalType": "uint256",
          "name": "",
          "type": "uint256"
        }
      ],
      "stateMutability": "view",
      "type": "function"
    },
    {
      "inputs": [
        {
          "internalType": "address",
          "name": "",
          "type": "address"
        }
      ],
      "name": "isAdmin",
      "outputs": [
        {
          "internalType": "bool",
          "name": "",
          "type": "bool"
        }
      ],
      "stateMutability": "view",
      "type": "function"
    },
    {
      "inputs": [],
      "name": "owner",
      "outputs": [
        {
          "internalType": "address",
          "name": "",
          "type": "address"
        }
      ],
      "stateMutability": "view",
      "type": "function"
    },
    {
      "inputs": [
        {
          "internalType": "address",
          "name": "_admin",
          "type": "address"
        }
      ],
      "name": "removeAdmin",
      "outputs": [],
      "stateMutability": "nonpayable",
      "type": "function"
    },
    {
      "inputs": [
        {
          "internalType": "string",
          "name": "username",
          "type": "string"
        }
      ],
      "name": "setUsername",
      "outputs": [],
      "stateMutability": "nonpayable",
      "type": "function"
    },
    {
      "inputs": [
        {
          "internalType": "string",
          "name": "",
          "type": "string"
        }
      ],
      "name": "usernameToAddress",
      "outputs": [
        {
          "internalType": "address",
          "name": "",
          "type": "address"
        }
      ],
      "stateMutability": "view",
      "type": "function"
    },
    {
      "inputs": [
        {
          "internalType": "address",
          "name": "",
          "type": "address"
        }
      ],
      "name": "usernames",
      "outputs": [
        {
          "internalType": "string",
          "name": "",
          "type": "string"
        }
      ],
      "stateMutability": "view",
      "type": "function"
    }
  ],
  "bytecode": "0x6080604052348015600e575f5ffd5b505f80546001600160a01b031916339081178255808252600160208190526040808420805460ff19169092179091555190917f44d6d25963f097ad14f29f06854a01f575648a1ef82f30e562ccd3889717e33991a26114b1806100705f395ff3fe608060405234801561000f575f5ffd5b50600436106100b1575f3560e01c80638da5cb5b1161006e5780638da5cb5b14610182578063c1f1a8a0146101ac578063cee4f70b146101cb578063ed59313a146101eb578063ee91877c146101fe578063f825f1431461021e575f5ffd5b8063153629c7146100b55780631785f53c146100ca57806324d7806c146100dd5780633b993fe014610114578063633988441461014a578063704802751461016f575b5f5ffd5b6100c86100c3366004610e59565b610252565b005b6100c86100d8366004610f5f565b6104b6565b6100ff6100eb366004610f5f565b60016020525f908152604090205460ff1681565b60405190151581526020015b60405180910390f35b61013c610122366004610f5f565b6001600160a01b03165f9081526005602052604090205490565b60405190815260200161010b565b61015d610158366004610f7f565b6105a2565b60405161010b96959493929190610fd5565b6100c861017d366004610f5f565b6106fa565b5f54610194906001600160a01b031681565b6040516001600160a01b03909116815260200161010b565b61013c6101ba366004610f5f565b60056020525f908152604090205481565b6101de6101d9366004610f7f565b6107f1565b60405161010b919061102a565b6100c86101f93660046110f8565b610aab565b61021161020c366004610f5f565b610cdc565b60405161010b9190611137565b61019461022c36600461115d565b80516020818301810180516003825292820191909301209152546001600160a01b031681565b335f9081526001602052604090205460ff166102a45760405162461bcd60e51b815260206004820152600c60248201526b2737ba1030b71030b236b4b760a11b60448201526064015b60405180910390fd5b6001600160a01b038a165f908152600560205260408120546102c7906001611210565b604080516101006020601f8701819004028201810190925260e0810185815292935091829186908690819085018382808284375f92019190915250505090825250604080516020601f8e018190048102820181019092528c815291810191908d908d90819084018382808284375f920191909152505050908252506001600160a01b038d1660208083019190915260408083018c9052606083018b905280518983028181018401909252898152608090930192918a918a918291908501908490808284375f9201829052509385525050508615156020928301526001600160a01b038e16815260048252604080822085835290925220815181906103cb90826112b3565b50602082015160018201906103e090826112b3565b5060408201516002820180546001600160a01b0319166001600160a01b03909216919091179055606082015160038201556080820151600482015560a08201518051610436916005840191602090910190610d73565b5060c091909101516006909101805460ff19169115159190911790556001600160a01b038b165f8181526005602052604090819020839055513391907fbb67ec770252831c3d16d22f00cca463902b7ddc450ae96ac55f6d0f1bd8bdf6906104a1908e908e9061136e565b60405180910390a35050505050505050505050565b5f546001600160a01b031633146105045760405162461bcd60e51b81526020600482015260126024820152712737ba1031b7b73a3930b1ba1037bbb732b960711b604482015260640161029b565b6001600160a01b0381165f9081526001602052604090205460ff1661055a5760405162461bcd60e51b815260206004820152600c60248201526b2737ba1030b71030b236b4b760a11b604482015260640161029b565b6001600160a01b0381165f81815260016020526040808220805460ff19169055517fa3b62bc36326052d97ea62d63c3d60308ed4c3ea8ac079dd8499f1e9c4f80c0f9190a250565b600460209081525f92835260408084209091529082529020805481906105c79061122f565b80601f01602080910402602001604051908101604052809291908181526020018280546105f39061122f565b801561063e5780601f106106155761010080835404028352916020019161063e565b820191905f5260205f20905b81548152906001019060200180831161062157829003601f168201915b5050505050908060010180546106539061122f565b80601f016020809104026020016040519081016040528092919081815260200182805461067f9061122f565b80156106ca5780601f106106a1576101008083540402835291602001916106ca565b820191905f5260205f20905b8154815290600101906020018083116106ad57829003601f168201915b5050505060028301546003840154600485015460069095015493946001600160a01b039092169390925060ff1686565b5f546001600160a01b031633146107485760405162461bcd60e51b81526020600482015260126024820152712737ba1031b7b73a3930b1ba1037bbb732b960711b604482015260640161029b565b6001600160a01b0381165f9081526001602052604090205460ff16156107a35760405162461bcd60e51b815260206004820152601060248201526f20b63932b0b23c9030b71030b236b4b760811b604482015260640161029b565b6001600160a01b0381165f818152600160208190526040808320805460ff1916909217909155517f44d6d25963f097ad14f29f06854a01f575648a1ef82f30e562ccd3889717e3399190a250565b6108386040518060e0016040528060608152602001606081526020015f6001600160a01b031681526020015f81526020015f8152602001606081526020015f151581525090565b5f8211801561085e57506001600160a01b0383165f908152600560205260409020548211155b6108a35760405162461bcd60e51b8152602060048201526016602482015275092dcecc2d8d2c840c8dec6eadacadce840d2dcc8caf60531b604482015260640161029b565b6001600160a01b0383165f90815260046020908152604080832085845290915290819020815160e081019092528054829082906108df9061122f565b80601f016020809104026020016040519081016040528092919081815260200182805461090b9061122f565b80156109565780601f1061092d57610100808354040283529160200191610956565b820191905f5260205f20905b81548152906001019060200180831161093957829003601f168201915b5050505050815260200160018201805461096f9061122f565b80601f016020809104026020016040519081016040528092919081815260200182805461099b9061122f565b80156109e65780601f106109bd576101008083540402835291602001916109e6565b820191905f5260205f20905b8154815290600101906020018083116109c957829003601f168201915b50505050508152602001600282015f9054906101000a90046001600160a01b03166001600160a01b03166001600160a01b03168152602001600382015481526020016004820154815260200160058201805480602002602001604051908101604052809291908181526020018280548015610a8857602002820191905f5260205f20905b81546001600160a01b03168152600190910190602001808311610a6a575b50505091835250506006919091015460ff16151560209091015290505b92915050565b80610af85760405162461bcd60e51b815260206004820152601860248201527f557365726e616d652063616e6e6f7420626520656d7074790000000000000000604482015260640161029b565b5f6001600160a01b031660038383604051610b1492919061139c565b908152604051908190036020019020546001600160a01b031614610b735760405162461bcd60e51b81526020600482015260166024820152752ab9b2b93730b6b29030b63932b0b23c903a30b5b2b760511b604482015260640161029b565b335f9081526002602052604081208054610b8c9061122f565b80601f0160208091040260200160405190810160405280929190818152602001828054610bb89061122f565b8015610c035780601f10610bda57610100808354040283529160200191610c03565b820191905f5260205f20905b815481529060010190602001808311610be657829003601f168201915b505050505090505f81511115610c4157600381604051610c2391906113ab565b90815260405190819003602001902080546001600160a01b03191690555b335f908152600260205260409020610c5a8385836113c1565b503360038484604051610c6e92919061139c565b90815260405190819003602001812080546001600160a01b03939093166001600160a01b03199093169290921790915533907f74d8e560d2e870c35b35dc882df2a5c96e2bf1cdb5ef6dd2f9cb433c8d04885390610ccf908690869061136e565b60405180910390a2505050565b60026020525f908152604090208054610cf49061122f565b80601f0160208091040260200160405190810160405280929190818152602001828054610d209061122f565b8015610d6b5780601f10610d4257610100808354040283529160200191610d6b565b820191905f5260205f20905b815481529060010190602001808311610d4e57829003601f168201915b505050505081565b828054828255905f5260205f20908101928215610dc6579160200282015b82811115610dc657825182546001600160a01b0319166001600160a01b03909116178255602090920191600190910190610d91565b50610dd2929150610dd6565b5090565b5b80821115610dd2575f8155600101610dd7565b80356001600160a01b0381168114610e00575f5ffd5b919050565b5f5f83601f840112610e15575f5ffd5b50813567ffffffffffffffff811115610e2c575f5ffd5b602083019150836020828501011115610e43575f5ffd5b9250929050565b80358015158114610e00575f5ffd5b5f5f5f5f5f5f5f5f5f5f60e08b8d031215610e72575f5ffd5b610e7b8b610dea565b995060208b013567ffffffffffffffff811115610e96575f5ffd5b610ea28d828e01610e05565b909a5098505060408b0135965060608b0135955060808b013567ffffffffffffffff811115610ecf575f5ffd5b8b01601f81018d13610edf575f5ffd5b803567ffffffffffffffff811115610ef5575f5ffd5b8d60208260051b8401011115610f09575f5ffd5b60209190910195509350610f1f60a08c01610e4a565b925060c08b013567ffffffffffffffff811115610f3a575f5ffd5b610f468d828e01610e05565b915080935050809150509295989b9194979a5092959850565b5f60208284031215610f6f575f5ffd5b610f7882610dea565b9392505050565b5f5f60408385031215610f90575f5ffd5b610f9983610dea565b946020939093013593505050565b5f81518084528060208401602086015e5f602082860101526020601f19601f83011685010191505092915050565b60c081525f610fe760c0830189610fa7565b8281036020840152610ff98189610fa7565b6001600160a01b03979097166040840152505060608101939093526080830191909152151560a09091015292915050565b602081525f825160e06020840152611046610100840182610fa7565b90506020840151601f198483030160408501526110638282610fa7565b60408601516001600160a01b031660608681019190915286015160808087019190915286015160a086810191909152860151858203601f190160c08701528051808352602091820194505f93509101905b808310156110df5783516001600160a01b0316825260209384019360019390930192909101906110b4565b5060c086015180151560e0870152925095945050505050565b5f5f60208385031215611109575f5ffd5b823567ffffffffffffffff81111561111f575f5ffd5b61112b85828601610e05565b90969095509350505050565b602081525f610f786020830184610fa7565b634e487b7160e01b5f52604160045260245ffd5b5f6020828403121561116d575f5ffd5b813567ffffffffffffffff811115611183575f5ffd5b8201601f81018413611193575f5ffd5b803567ffffffffffffffff8111156111ad576111ad611149565b604051601f8201601f19908116603f0116810167ffffffffffffffff811182821017156111dc576111dc611149565b6040528181528282016020018610156111f3575f5ffd5b816020840160208301375f91810160200191909152949350505050565b80820180821115610aa557634e487b7160e01b5f52601160045260245ffd5b600181811c9082168061124357607f821691505b60208210810361126157634e487b7160e01b5f52602260045260245ffd5b50919050565b601f8211156112ae57805f5260205f20601f840160051c8101602085101561128c5750805b601f840160051c820191505b818110156112ab575f8155600101611298565b50505b505050565b815167ffffffffffffffff8111156112cd576112cd611149565b6112e1816112db845461122f565b84611267565b6020601f821160018114611313575f83156112fc5750848201515b5f19600385901b1c1916600184901b1784556112ab565b5f84815260208120601f198516915b828110156113425787850151825560209485019460019092019101611322565b508482101561135f57868401515f19600387901b60f8161c191681555b50505050600190811b01905550565b60208152816020820152818360408301375f818301604090810191909152601f909201601f19160101919050565b818382375f9101908152919050565b5f82518060208501845e5f920191825250919050565b67ffffffffffffffff8311156113d9576113d9611149565b6113ed836113e7835461122f565b83611267565b5f601f84116001811461141e575f85156114075750838201355b5f19600387901b1c1916600186901b1783556112ab565b5f83815260208120601f198716915b8281101561144d578685013582556020948501946001909201910161142d565b5086821015611469575f1960f88860031b161c19848701351681555b505060018560011b018355505050505056fea264697066735822122060fcb0bd552091e1b586327a4b76d43c44c735ee804d0e837ca6d7a4acd42b8d64736f6c634300081c0033",
  "linkReferences": {},
  "deployedLinkReferences": {},
  "immutableReferences": {},
  "inputSourceName": "project/contracts/SealEncrypt.sol",
  "buildInfoId": "solc-0_8_28-246dcf5e3d7094733b2eb30ea3258bdbdc6a57b0"
}