{
  "_format": "hh3-artifact-1",
  "contractName": "SealEncrypt",
  "sourceName": "contracts/SealEncrypt.sol",
  "abi": [
    {
      "inputs": [],
      "stateMutability": "nonpayable",
      "type": "constructor"
    },
    {
      "anonymous": false,
      "inputs": [
        {
          "indexed": true,
          "internalType": "address",
          "name": "admin",
          "type": "address"
        }
      ],
      "name": "AdminAdded",
      "type": "event"
    },
    {
      "anonymous": false,
      "inputs": [
        {
          "indexed": true,
          "internalType": "address",
          "name": "admin",
          "type": "address"
        }
      ],
      "name": "AdminRemoved",
      "type": "event"
    },
    {
      "anonymous": false,
      "inputs": [
        {
          "indexed": true,
          "internalType": "address",
          "name": "user",
          "type": "address"
        },
        {
          "indexed": false,
          "internalType": "string",
          "name": "cid",
          "type": "string"
        },
        {
          "indexed": true,
          "internalType": "address",
          "name": "addedBy",
          "type": "address"
        }
      ],
      "name": "CIDAdded",
      "type": "event"
    },
    {
      "anonymous": false,
      "inputs": [
        {
          "indexed": true,
          "internalType": "address",
          "name": "user",
          "type": "address"
        },
        {
          "indexed": false,
          "internalType": "string",
          "name": "username",
          "type": "string"
        }
      ],
      "name": "UsernameSet",
      "type": "event"
    },
    {
      "inputs": [
        {
          "internalType": "address",
          "name": "_admin",
          "type": "address"
        }
      ],
      "name": "addAdmin",
      "outputs": [],
      "stateMutability": "nonpayable",
      "type": "function"
    },
    {
      "inputs": [
        {
          "internalType": "address",
          "name": "user",
          "type": "address"
        },
        {
          "internalType": "string",
          "name": "cid",
          "type": "string"
        },
        {
          "internalType": "uint256",
          "name": "unlockTime",
          "type": "uint256"
        },
        {
          "internalType": "uint256",
          "name": "price",
          "type": "uint256"
        },
        {
          "internalType": "address[]",
          "name": "recipients",
          "type": "address[]"
        },
        {
          "internalType": "bool",
          "name": "encrypted",
          "type": "bool"
        }
      ],
      "name": "addDocument",
      "outputs": [],
      "stateMutability": "nonpayable",
      "type": "function"
    },
    {
      "inputs": [
        {
          "internalType": "address",
          "name": "",
          "type": "address"
        }
      ],
      "name": "documentCount",
      "outputs": [
        {
          "internalType": "uint256",
          "name": "",
          "type": "uint256"
        }
      ],
      "stateMutability": "view",
      "type": "function"
    },
    {
      "inputs": [
        {
          "internalType": "address",
          "name": "",
          "type": "address"
        },
        {
          "internalType": "uint256",
          "name": "",
          "type": "uint256"
        }
      ],
      "name": "documents",
      "outputs": [
        {
          "internalType": "address",
          "name": "owner",
          "type": "address"
        },
        {
          "internalType": "string",
          "name": "cid",
          "type": "string"
        },
        {
          "internalType": "uint256",
          "name": "unlockTime",
          "type": "uint256"
        },
        {
          "internalType": "uint256",
          "name": "price",
          "type": "uint256"
        },
        {
          "internalType": "bool",
          "name": "encrypted",
          "type": "bool"
        }
      ],
      "stateMutability": "view",
      "type": "function"
    },
    {
      "inputs": [
        {
          "internalType": "address",
          "name": "user",
          "type": "address"
        },
        {
          "internalType": "uint256",
          "name": "index",
          "type": "uint256"
        }
      ],
      "name": "getDocument",
      "outputs": [
        {
          "components": [
            {
              "internalType": "address",
              "name": "owner",
              "type": "address"
            },
            {
              "internalType": "string",
              "name": "cid",
              "type": "string"
            },
            {
              "internalType": "uint256",
              "name": "unlockTime",
              "type": "uint256"
            },
            {
              "internalType": "uint256",
              "name": "price",
              "type": "uint256"
            },
            {
              "internalType": "address[]",
              "name": "recipients",
              "type": "address[]"
            },
            {
              "internalType": "bool",
              "name": "encrypted",
              "type": "bool"
            }
          ],
          "internalType": "struct SealEncrypt.Document",
          "name": "",
          "type": "tuple"
        }
      ],
      "stateMutability": "view",
      "type": "function"
    },
    {
      "inputs": [
        {
          "internalType": "address",
          "name": "user",
          "type": "address"
        }
      ],
      "name": "getDocumentCount",
      "outputs": [
        {
          "internalType": "uint256",
          "name": "",
          "type": "uint256"
        }
      ],
      "stateMutability": "view",
      "type": "function"
    },
    {
      "inputs": [
        {
          "internalType": "address",
          "name": "",
          "type": "address"
        }
      ],
      "name": "isAdmin",
      "outputs": [
        {
          "internalType": "bool",
          "name": "",
          "type": "bool"
        }
      ],
      "stateMutability": "view",
      "type": "function"
    },
    {
      "inputs": [],
      "name": "owner",
      "outputs": [
        {
          "internalType": "address",
          "name": "",
          "type": "address"
        }
      ],
      "stateMutability": "view",
      "type": "function"
    },
    {
      "inputs": [
        {
          "internalType": "address",
          "name": "_admin",
          "type": "address"
        }
      ],
      "name": "removeAdmin",
      "outputs": [],
      "stateMutability": "nonpayable",
      "type": "function"
    },
    {
      "inputs": [
        {
          "internalType": "string",
          "name": "username",
          "type": "string"
        }
      ],
      "name": "setUsername",
      "outputs": [],
      "stateMutability": "nonpayable",
      "type": "function"
    },
    {
      "inputs": [
        {
          "internalType": "string",
          "name": "",
          "type": "string"
        }
      ],
      "name": "usernameToAddress",
      "outputs": [
        {
          "internalType": "address",
          "name": "",
          "type": "address"
        }
      ],
      "stateMutability": "view",
      "type": "function"
    },
    {
      "inputs": [
        {
          "internalType": "address",
          "name": "",
          "type": "address"
        }
      ],
      "name": "usernames",
      "outputs": [
        {
          "internalType": "string",
          "name": "",
          "type": "string"
        }
      ],
      "stateMutability": "view",
      "type": "function"
    }
  ],
  "bytecode": "0x6080604052348015600e575f5ffd5b505f80546001600160a01b031916339081178255808252600160208190526040808420805460ff19169092179091555190917f44d6d25963f097ad14f29f06854a01f575648a1ef82f30e562ccd3889717e33991a26112b2806100705f395ff3fe608060405234801561000f575f5ffd5b50600436106100b1575f3560e01c80638da5cb5b1161006e5780638da5cb5b14610181578063c1f1a8a0146101ab578063cee4f70b146101ca578063ed59313a146101ea578063ee91877c146101fd578063f825f1431461021d575f5ffd5b80631785f53c146100b557806324d7806c146100ca5780633b993fe014610101578063633988441461013757806368a6f9371461015b578063704802751461016e575b5f5ffd5b6100c86100c3366004610c6c565b610251565b005b6100ec6100d8366004610c6c565b60016020525f908152604090205460ff1681565b60405190151581526020015b60405180910390f35b61012961010f366004610c6c565b6001600160a01b03165f9081526005602052604090205490565b6040519081526020016100f8565b61014a610145366004610c8c565b610342565b6040516100f8959493929190610ce2565b6100c8610169366004610d78565b610410565b6100c861017c366004610c6c565b610618565b5f54610193906001600160a01b031681565b6040516001600160a01b0390911681526020016100f8565b6101296101b9366004610c6c565b60056020525f908152604090205481565b6101dd6101d8366004610c8c565b61070f565b6040516100f89190610e4b565b6100c86101f8366004610ef9565b610912565b61021061020b366004610c6c565b610b43565b6040516100f89190610f38565b61019361022b366004610f5e565b80516020818301810180516003825292820191909301209152546001600160a01b031681565b5f546001600160a01b031633146102a45760405162461bcd60e51b81526020600482015260126024820152712737ba1031b7b73a3930b1ba1037bbb732b960711b60448201526064015b60405180910390fd5b6001600160a01b0381165f9081526001602052604090205460ff166102fa5760405162461bcd60e51b815260206004820152600c60248201526b2737ba1030b71030b236b4b760a11b604482015260640161029b565b6001600160a01b0381165f81815260016020526040808220805460ff19169055517fa3b62bc36326052d97ea62d63c3d60308ed4c3ea8ac079dd8499f1e9c4f80c0f9190a250565b600460209081525f9283526040808420909152908252902080546001820180546001600160a01b03909216929161037890611011565b80601f01602080910402602001604051908101604052809291908181526020018280546103a490611011565b80156103ef5780601f106103c6576101008083540402835291602001916103ef565b820191905f5260205f20905b8154815290600101906020018083116103d257829003601f168201915b50505050600283015460038401546005909401549293909290915060ff1685565b335f9081526001602052604090205460ff1661045d5760405162461bcd60e51b815260206004820152600c60248201526b2737ba1030b71030b236b4b760a11b604482015260640161029b565b6001600160a01b0388165f90815260056020526040812054610480906001611049565b90506040518060c001604052808a6001600160a01b0316815260200189898080601f0160208091040260200160405190810160405280939291908181526020018383808284375f92019190915250505090825250602080820189905260408083018990528051878302818101840190925287815260609093019291889188918291908501908490808284375f9201829052509385525050508415156020928301526001600160a01b038c811682526004835260408083208684528452909120835181546001600160a01b031916921691909117815590820151600182019061056890826110b4565b50604082015160028201556060820151600382015560808201518051610598916004840191602090910190610bda565b5060a091909101516005918201805460ff19169115159190911790556001600160a01b038a165f81815260209290925260409182902083905590513391907fbb67ec770252831c3d16d22f00cca463902b7ddc450ae96ac55f6d0f1bd8bdf690610605908c908c9061116f565b60405180910390a3505050505050505050565b5f546001600160a01b031633146106665760405162461bcd60e51b81526020600482015260126024820152712737ba1031b7b73a3930b1ba1037bbb732b960711b604482015260640161029b565b6001600160a01b0381165f9081526001602052604090205460ff16156106c15760405162461bcd60e51b815260206004820152601060248201526f20b63932b0b23c9030b71030b236b4b760811b604482015260640161029b565b6001600160a01b0381165f818152600160208190526040808320805460ff1916909217909155517f44d6d25963f097ad14f29f06854a01f575648a1ef82f30e562ccd3889717e3399190a250565b61074f6040518060c001604052805f6001600160a01b03168152602001606081526020015f81526020015f8152602001606081526020015f151581525090565b5f8211801561077557506001600160a01b0383165f908152600560205260409020548211155b6107ba5760405162461bcd60e51b8152602060048201526016602482015275092dcecc2d8d2c840c8dec6eadacadce840d2dcc8caf60531b604482015260640161029b565b6001600160a01b038084165f908152600460209081526040808320868452825291829020825160c08101909352805490931682526001830180549293929184019161080490611011565b80601f016020809104026020016040519081016040528092919081815260200182805461083090611011565b801561087b5780601f106108525761010080835404028352916020019161087b565b820191905f5260205f20905b81548152906001019060200180831161085e57829003601f168201915b505050505081526020016002820154815260200160038201548152602001600482018054806020026020016040519081016040528092919081815260200182805480156108ef57602002820191905f5260205f20905b81546001600160a01b031681526001909101906020018083116108d1575b50505091835250506005919091015460ff16151560209091015290505b92915050565b8061095f5760405162461bcd60e51b815260206004820152601860248201527f557365726e616d652063616e6e6f7420626520656d7074790000000000000000604482015260640161029b565b5f6001600160a01b03166003838360405161097b92919061119d565b908152604051908190036020019020546001600160a01b0316146109da5760405162461bcd60e51b81526020600482015260166024820152752ab9b2b93730b6b29030b63932b0b23c903a30b5b2b760511b604482015260640161029b565b335f90815260026020526040812080546109f390611011565b80601f0160208091040260200160405190810160405280929190818152602001828054610a1f90611011565b8015610a6a5780601f10610a4157610100808354040283529160200191610a6a565b820191905f5260205f20905b815481529060010190602001808311610a4d57829003601f168201915b505050505090505f81511115610aa857600381604051610a8a91906111ac565b90815260405190819003602001902080546001600160a01b03191690555b335f908152600260205260409020610ac18385836111c2565b503360038484604051610ad592919061119d565b90815260405190819003602001812080546001600160a01b03939093166001600160a01b03199093169290921790915533907f74d8e560d2e870c35b35dc882df2a5c96e2bf1cdb5ef6dd2f9cb433c8d04885390610b36908690869061116f565b60405180910390a2505050565b60026020525f908152604090208054610b5b90611011565b80601f0160208091040260200160405190810160405280929190818152602001828054610b8790611011565b8015610bd25780601f10610ba957610100808354040283529160200191610bd2565b820191905f5260205f20905b815481529060010190602001808311610bb557829003601f168201915b505050505081565b828054828255905f5260205f20908101928215610c2d579160200282015b82811115610c2d57825182546001600160a01b0319166001600160a01b03909116178255602090920191600190910190610bf8565b50610c39929150610c3d565b5090565b5b80821115610c39575f8155600101610c3e565b80356001600160a01b0381168114610c67575f5ffd5b919050565b5f60208284031215610c7c575f5ffd5b610c8582610c51565b9392505050565b5f5f60408385031215610c9d575f5ffd5b610ca683610c51565b946020939093013593505050565b5f81518084528060208401602086015e5f602082860101526020601f19601f83011685010191505092915050565b6001600160a01b038616815260a0602082018190525f90610d0590830187610cb4565b6040830195909552506060810192909252151560809091015292915050565b5f5f83601f840112610d34575f5ffd5b50813567ffffffffffffffff811115610d4b575f5ffd5b602083019150836020828501011115610d62575f5ffd5b9250929050565b80358015158114610c67575f5ffd5b5f5f5f5f5f5f5f5f60c0898b031215610d8f575f5ffd5b610d9889610c51565b9750602089013567ffffffffffffffff811115610db3575f5ffd5b610dbf8b828c01610d24565b9098509650506040890135945060608901359350608089013567ffffffffffffffff811115610dec575f5ffd5b8901601f81018b13610dfc575f5ffd5b803567ffffffffffffffff811115610e12575f5ffd5b8b60208260051b8401011115610e26575f5ffd5b60209190910193509150610e3c60a08a01610d69565b90509295985092959890939650565b602080825282516001600160a01b03168282015282015160c060408301525f90610e7860e0840182610cb4565b905060408401516060840152606084015160808401526080840151601f198483030160a08501528181518084526020840191506020830193505f92505b80831015610ee05783516001600160a01b031682526020938401936001939093019290910190610eb5565b5060a086015180151560c0870152925095945050505050565b5f5f60208385031215610f0a575f5ffd5b823567ffffffffffffffff811115610f20575f5ffd5b610f2c85828601610d24565b90969095509350505050565b602081525f610c856020830184610cb4565b634e487b7160e01b5f52604160045260245ffd5b5f60208284031215610f6e575f5ffd5b813567ffffffffffffffff811115610f84575f5ffd5b8201601f81018413610f94575f5ffd5b803567ffffffffffffffff811115610fae57610fae610f4a565b604051601f8201601f19908116603f0116810167ffffffffffffffff81118282101715610fdd57610fdd610f4a565b604052818152828201602001861015610ff4575f5ffd5b816020840160208301375f91810160200191909152949350505050565b600181811c9082168061102557607f821691505b60208210810361104357634e487b7160e01b5f52602260045260245ffd5b50919050565b8082018082111561090c57634e487b7160e01b5f52601160045260245ffd5b601f8211156110af57805f5260205f20601f840160051c8101602085101561108d5750805b601f840160051c820191505b818110156110ac575f8155600101611099565b50505b505050565b815167ffffffffffffffff8111156110ce576110ce610f4a565b6110e2816110dc8454611011565b84611068565b6020601f821160018114611114575f83156110fd5750848201515b5f19600385901b1c1916600184901b1784556110ac565b5f84815260208120601f198516915b828110156111435787850151825560209485019460019092019101611123565b508482101561116057868401515f19600387901b60f8161c191681555b50505050600190811b01905550565b60208152816020820152818360408301375f818301604090810191909152601f909201601f19160101919050565b818382375f9101908152919050565b5f82518060208501845e5f920191825250919050565b67ffffffffffffffff8311156111da576111da610f4a565b6111ee836111e88354611011565b83611068565b5f601f84116001811461121f575f85156112085750838201355b5f19600387901b1c1916600186901b1783556110ac565b5f83815260208120601f198716915b8281101561124e578685013582556020948501946001909201910161122e565b508682101561126a575f1960f88860031b161c19848701351681555b505060018560011b018355505050505056fea2646970667358221220137905e28fd84c78b2d1af7e2307349a2297465740b4f8234a3e85c10cecbc8364736f6c634300081c0033",
  "linkReferences": {},
  "deployedLinkReferences": {},
  "immutableReferences": {},
  "inputSourceName": "project/contracts/SealEncrypt.sol",
  "buildInfoId": "solc-0_8_28-59d7dc174a9664d6879f033a8df1b952a543f8d5"
}